:100000000C9462000C94EE040C94C7040C948A00C7
:100010000C948A000C948A000C948A000C948A0038
:100020000C948A000C9415050C948A000C948A0098
:100030000C948A000C9435050C948A000C948A0068
:100040000C947D040C948A000C944B040C942504AD
:100050000C948A000C948A000C948A000C948A00F8
:100060000C948A000C948A000000000024002700F1
:100070002A0000000000250028002B0000000000DE
:1000800023002600290004040404040404040202DA
:100090000202020203030303030301020408102007
:1000A0004080010204081020010204081020000012
:1000B0000008000201000003040700000000000027
:1000C0000000980B11241FBECFEFD8E0DEBFCDBFDC
:1000D00012E0A0E0B1E0EEEDFBE102C005900D9270
:1000E000A43CB107D9F723E0A4ECB2E001C01D9213
:1000F000A539B207E1F710E0C2E6D0E004C02197CD
:10010000FE010E94E70DC136D107C9F70E947705AD
:100110000C94ED0D0C94000020918400309185002A
:1001200080910001909101018217930740F5809121
:100130008400909185008053984F909301018093A3
:1001400000018091C7028F5F8093C7028231B8F0AF
:1001500080918400909185009093F5028093F40241
:1001600010928500109284001092C70281E0809363
:10017000F60280ED97E09093010180930001809159
:10018000DE029091DF0201969093DF028093DE02FF
:100190000895AF92BF92CF92DF92EF92FF920F93AA
:1001A0001F93CF93DF936C017B018B01040F151F0D
:1001B000EB015E01AE18BF08C017D10759F0699175
:1001C000D601ED91FC910190F081E02DC6010995D9
:1001D000892B79F7C501DF91CF911F910F91FF9086
:1001E000EF90DF90CF90BF90AF900895FC01538DBA
:1001F000448D252F30E0842F90E0821B930B541701
:1002000010F0CF96089501970895FC01918D828D8D
:10021000981761F0A28DAE0FBF2FB11D5D968C9126
:10022000928D9F5F9F73928F90E008958FEF9FEF65
:100230000895FC01918D828D981731F0828DE80F21
:10024000F11D858D90E008958FEF9FEF0895FC01DB
:10025000918D228D892F90E0805C9F4F821B9109A8
:100260008F739927089588EF92E00E94270121E07B
:10027000892B09F420E0822F089580E090E0892BFB
:1002800029F00E94330181110C9400000895FC01B3
:10029000A48DA80FB92FB11DA35ABF4F2C91848DE7
:1002A00090E001968F739927848FA689B7892C9344
:1002B000A089B1898C91837080648C93938D848D97
:1002C000981306C00288F389E02D80818F7D80839A
:1002D0000895EF92FF920F931F93CF93DF93EC015A
:1002E00081E0888F9B8D8C8D98131AC0E889F989DD
:1002F000808185FF15C09FB7F894EE89FF896083E0
:10030000E889F98980818370806480839FBF81E060
:1003100090E0DF91CF911F910F91FF90EF900895A2
:10032000F62E0B8D10E00F5F1F4F0F731127E02E7D
:100330008C8D8E110CC00FB607FCFACFE889F989B5
:10034000808185FFF5CFCE010E944701F1CFEB8D73
:10035000EC0FFD2FF11DE35AFF4FF0829FB7F89489
:100360000B8FEA89FB8980818062CFCFCF93DF93A7
:10037000EC01888D8823B9F0AA89BB89E889F989BD
:100380008C9185FD03C0808186FD0DC00FB607FCF2
:10039000F7CF8C9185FFF2CF808185FFEDCFCE0125
:1003A0000E944701E9CFDF91CF910895833081F01A
:1003B00028F4813099F08230A9F008958730A9F0AF
:1003C0008830C9F08430B1F4809180008F7D03C003
:1003D000809180008F7780938000089584B58F7717
:1003E00084BD089584B58F7DFBCF8091B0008F7759
:1003F0008093B00008958091B0008F7DF9CFCF93A6
:10040000DF93282F30E0F901E255FF4F8491F90185
:10041000E656FF4FD491F901EA57FF4FC491CC2320
:10042000A1F081110E94D601EC2FF0E0EE0FFF1F2A
:10043000E458FF4FA591B491EC91ED2381E090E059
:1004400009F480E0DF91CF91089580E090E0FACF49
:100450001F93CF93DF93282F30E0F901E255FF4F30
:100460008491F901E656FF4FD491F901EA57FF4F05
:10047000C491CC23A9F0162F81110E94D601EC2F34
:10048000F0E0EE0FFF1FEE58FF4FA591B4918FB72C
:10049000F894EC91111108C0D095DE23DC938FBF46
:1004A000DF91CF911F910895DE2BF8CFCF93DF938B
:1004B00090E0FC01E656FF4F24918A579F4FFC01C4
:1004C00084918823D1F090E0880F991FFC01E859AE
:1004D000FF4FA591B491FC01EE58FF4FC591D49107
:1004E000623071F49FB7F8943C91822F80958323FA
:1004F0008C93E8812E2B28839FBFDF91CF910895A5
:100500008FB7F894EC912E2B2C938FBFF6CF3FB77B
:10051000F8948091D0029091D102A091D202B09132
:10052000D30226B5A89B05C02F3F19F00196A11D47
:10053000B11D3FBFBA2FA92F982F8827BC01CD012D
:10054000620F711D811D911D42E0660F771F881F8C
:10055000991F4A95D1F708958F929F92AF92BF92BB
:10056000CF92DF92EF92FF924B015C010E948702D3
:100570006B017C010E9487026C197D098E099F091D
:10058000683E734081059105A8F321E0821A910825
:10059000A108B10888EEC80E83E0D81EE11CF11C4A
:1005A00081149104A104B10429F7FF90EF90DF902A
:1005B000CF90BF90AF909F908F900895089520E0C6
:1005C0003091C9028091B200820F932F911D40910A
:1005D00002015091030148175907B0F58091B2000C
:1005E000820F932F911D8053984F90930301809316
:1005F00002018091C8028F5F8093C802823120F18E
:1006000089E08093C7028091B20020E03091C5025A
:10061000820F932F911D9093EC028093EB02109226
:10062000B2001092C6021092C5021092C80280ED6C
:1006300097E090930301809302011092CA021092F6
:10064000C90281E08093ED020895CF9381E10E9479
:10065000FF01892B19F480E10E94FF0181E10E94D2
:10066000FF010197D1F0C4E081E10E94FF01892BD5
:1006700031F480E10E94FF01019709F4C2E081E1B9
:100680000E94FF01019731F480E10E94FF01019770
:1006900009F4C1E08C2FCF91089580E10E94FF0101
:1006A000892B09F7C3E0E0CF4F925F926F927F9260
:1006B0008F929F92AF92BF92CF92DF92EF92FF9272
:1006C000CF93DF932091F002223309F057C020E04E
:1006D00030E543E457E40E94C50B6B017C0120E048
:1006E00030E0A901C701B6010E941F0D4601570164
:1006F000181624F0B7FAB094B7F8B09420E030E0C0
:1007000040E251E4C501B4010E94C50B2B013C013C
:1007100020E030E0A9010E94320C87FF03C0412C89
:10072000512C320125E535E545E751E4C301B2011D
:100730000E94240D0E94370CEB01C03187E2D807DC
:1007400014F0CFE0D7E2A5019401C701B6010E94E1
:10075000320C882319F0D195C195D109CE01DF91D2
:10076000CF91FF90EF90DF90CF90BF90AF909F9090
:100770008F907F906F905F904F9008952C3309F089
:10078000AECF20E030E64AE657E4A5CFFC01019069
:100790000020E9F73197AF01481B590BBC0188EFE6
:1007A00092E00C94C9008F929F92AF92BF920F93E8
:1007B0001F93CF93DF93CDB7DEB7A1970FB6F89411
:1007C000DEBF0FBECDBF19A2423008F44AE08E0151
:1007D0000F5D1F4F842E912CB12CA12CA5019401EB
:1007E0000E94C50DE62FB901CA01EA30F4F4E05DBC
:1007F000D801EE938D01232B242B252B79F790E044
:1008000080E0109719F0CD010E94C603A1960FB6A3
:10081000F894DEBF0FBECDBFDF91CF911F910F9136
:10082000BF90AF909F908F900895E95CE1CFCF93F8
:10083000DF930E94C603EC0186E791E00E94C603A5
:100840008C0F9D1FDF91CF9108951F920F920FB6CD
:100850000F9211242F933F934F935F936F937F9346
:100860008F939F93AF93BF93EF93FF9388EF92E0A3
:100870000E944701FF91EF91BF91AF919F918F919E
:100880007F916F915F914F913F912F910F900FBE8C
:100890000F901F9018951F920F920FB60F92112470
:1008A0002F938F939F93EF93FF93E0910803F09121
:1008B00009038081E0910E03F0910F0382FD1BC0BC
:1008C0009081809111038F5F8F73209112038217A3
:1008D00041F0E0911103F0E0E850FD4F958F8093D7
:1008E0001103FF91EF919F918F912F910F900FBE68
:1008F0000F901F9018958081F4CF1F920F920FB622
:100900000F9211242F933F938F939F93AF93BF9395
:100910008091CC029091CD02A091CE02B091CF02F5
:100920003091CB0223E0230F2D3758F50196A11DFE
:10093000B11D2093CB028093CC029093CD02A09363
:10094000CE02B093CF028091D0029091D102A091BB
:10095000D202B091D3020196A11DB11D8093D002A5
:100960009093D102A093D202B093D302BF91AF91E2
:100970009F918F913F912F910F900FBE0F901F90DD
:10098000189526E8230F0296A11DB11DD2CF1F9204
:100990000F920FB60F9211242F933F934F935F93B3
:1009A0006F937F938F939F93AF93BF93EF93FF9337
:1009B000E0910601F09107010995FF91EF91BF9138
:1009C000AF919F918F917F916F915F914F913F91E7
:1009D0002F910F900FBE0F901F9018951F920F929E
:1009E0000FB60F9211242F933F934F935F936F9302
:1009F0007F938F939F93AF93BF93EF93FF93E09178
:100A00000401F09105010995FF91EF91BF91AF911C
:100A10009F918F917F916F915F914F913F912F9116
:100A20000F900FBE0F901F9018951F920F920FB648
:100A30000F9211248F939F938091C5029091C602CB
:100A400001969093C6028093C5028091C90290914D
:100A5000CA0201969093CA028093C9029F918F9116
:100A60000F900FBE0F901F9018951F920F920FB608
:100A70000F9211242F933F934F935F936F937F9324
:100A80008F939F93AF93BF93EF93FF938091C40293
:100A90008F5F8093C40210928500109284001092A0
:100AA000C7021092F60220ED37E030930101209347
:100AB0000001853058F082EB92E00E94170464E652
:100AC00070E080E090E00E94AC02F9CFFF91EF91DE
:100AD000BF91AF919F918F917F916F915F914F9156
:100AE0003F912F910F900FBE0F901F901895CF93AD
:100AF000DF93CDB7DEB7A1970FB6F894DEBF0FBE78
:100B0000CDBF789484B5826084BD84B5816084BD96
:100B100085B5826085BD85B5816085BD80916E009B
:100B2000816080936E0010928100809181008260CC
:100B30008093810080918100816080938100809109
:100B400080008160809380008091B10084608093F8
:100B5000B1008091B00081608093B00080917A00F4
:100B6000846080937A0080917A00826080937A001A
:100B700080917A00816080937A0080917A00806809
:100B800080937A001092C100F894E0910803F091EC
:100B9000090382E08083E0910403F0910503108251
:100BA000E0910603F091070387E68083109210031B
:100BB000E0910C03F0910D0386E08083E0910A033D
:100BC000F0910B03808180618083E0910A03F091B2
:100BD0000B03808188608083E0910A03F0910B030E
:100BE000808180688083E0910A03F0910B0380810B
:100BF0008F7D808380E490E09093C5008093C40053
:100C000061E084E00E9456028CE890E09093050138
:100C100080930401809169008C7F826080936900D9
:100C2000E89A8FED92E090930701809306018091FE
:100C300069008C6080936900E99A1092800010929C
:100C40008100109285001092840080918100836061
:100C50008093810080916F00816080936F0010927B
:100C6000B0001092B100109270001092B20080910A
:100C7000B10083608093B10084E08093B10081E093
:100C80008093700062E081E10E94560262E080E1A0
:100C90000E94560262E08FE00E94560261E088E006
:100CA0000E94560261E087E00E94560261E08EE0F9
:100CB0000E94560261E089E00E94560261E08AE0EB
:100CC0000E945602789488E199E20FB6F894A895AC
:100CD000809360000FBE909360006BE188EF92E01C
:100CE0000E94690189E791E00E94C6036BE188EFE9
:100CF00092E00E9469018DE791E00E94C60380E8BE
:100D000091E00E94170485EA91E00E941704809107
:100D1000F002823309F47CC18C3309F47DC18AEC82
:100D200091E00E94C60310E000E030E2832E38E537
:100D3000932E33EAA32E37EAB32E64EF71E080E0FE
:100D400090E00E94AC026EE288EF92E00E9469019E
:100D50000F5F1F4F0530110581F70091EB021091D5
:100D6000EC022091F4023091F50250E040E0C50120
:100D7000B4010E94C50D69013093F3022093F20281
:100D8000980150E040E0C501B4010E94C50D3093C8
:100D9000EA022093E902C601821B930B2C153D0544
:100DA00011F490E080E00A970CF02BC129ECC21AF4
:100DB0002FEAD20A3FE1C3163EE4D30608F021C170
:100DC00064EF71E080E090E00E94AC025FE0C51645
:100DD00057E2D50668F482E38093F00288ED91E053
:100DE0000E94170468EE73E080E090E00E94AC027D
:100DF0008091F2029091F302895D964D8F30974277
:100E000068F48CE38093F0028DEE91E00E94170469
:100E100068EE73E080E090E00E94AC028091F20204
:100E20009091F30290930901809308018091E90267
:100E30009091EA0290930B0180930A010E9425038E
:100E40008093E1028091F0028C3381F586EA9AEE7C
:100E500090931901809318018AE19AEE90931B01F7
:100E600080931A0184EC9AEE9093150180931401FB
:100E70008CEF99EE909317018093160188E29BEE18
:100E8000909311018093100188E999EE90931301DA
:100E90008093120188E49EEE90930D0180930C01E3
:100EA00088E796EE90930F0180930E018AE492E01A
:100EB0000E94C6036091E10270E090E080E04AE0A9
:100EC0000E94D30386E791E00E94C60364EF71E0BD
:100ED00080E090E00E94AC028CE592E00E94170452
:100EE00067E088EF92E00E94690164EF71E080E0C2
:100EF00090E00E94AC0288E19EE00FB6F894A895BD
:100F0000809360000FBE909360001092DC0290E22C
:100F1000492E98E5592E93EA692E97EA792E9E017B
:100F20002F5F3F4F69012AE0A22EB12C1E0134E051
:100F3000231A3108CE0103979F8F8E8F9E012C5E5E
:100F40003F4F39A328A3FF24F3948DE0E82E10929D
:100F5000F7020091F602002309F449C02091F4023F
:100F60003091F50250E040E0C301B2010E94C50D8E
:100F7000C9013093F3022093F2021092F102B901F9
:100F8000685C7F4A6131774230F46091F0026233ED
:100F900011F4F092F102B901685D764D613177424A
:100FA00030F46091F0026C3311F4F092F102609130
:100FB000F1026623E1F0E0910801F09109012E1B96
:100FC0003F0BB90137FF04C066277727621B730BFD
:100FD000653671055CF51092E502909309018093E6
:100FE00008019093EF028093EE02F092F7021091C5
:100FF000ED0211112AC0011175C0112309F45CC35F
:1010000093C086ED91E00E94C60304E010E095CE07
:1010100082E092E00E9417048091F0028C3309F084
:101020000DCF86E292E00E94170408CF1216130635
:1010300034F4CF018C599F4FF092E502CECF232B91
:10104000D9F3CF0184569109F7CF2091EB0230916B
:10105000EC0250E040E0C301B2010E94C50DC9019D
:101060003093EA022093E9021092E802B901685C29
:101070007F4A6131774230F46091F002623311F4BB
:10108000F092E802B901685D764D6131774230F443
:101090006091F0026C3311F4F092E8026091E80282
:1010A000662309F4A8CFE0910A01F0910B012E1BF1
:1010B0003F0BB90137FF04C066277727621B730B0C
:1010C000653671050CF008C11092E40290930B0193
:1010D00080930A019093E7028093E602F092F70270
:1010E000002311F12091E6023091E7024091EE02D7
:1010F0005091EF02CA01821B930B97FF03C0919599
:10110000819591090A9754F08091E502882309F4AA
:1011100009C38091E402882309F407C35093E302D2
:101120004093E2021123E9F02091E6023091E702B8
:101130008091EE029091EF02821B930B97FF03C008
:101140009195819591090A9744F08091E502882351
:1011500041F08091E402882321F03093E302209350
:10116000E2021092F6021092ED020091E20210915A
:10117000E30280911A0190911B010817190738F0BA
:1011800080911801909119018017910720F4B09275
:10119000DB02A092DA0280911601909117010817E4
:1011A000190738F08091140190911501801791076B
:1011B00020F4B092D902A092D802809112019091AD
:1011C00013010817190738F080911001909111014F
:1011D0008017910720F4B092D702A092D602809196
:1011E0000E0190910F010817190738F080910C013A
:1011F00090910D018017910720F4B092D502A09232
:10120000D4020E9425038093E102823009F4FEC0DB
:1012100008F071C0813009F4E8C08091DE0290913D
:10122000DF02C3970CF420C21092DF021092DE029C
:101230008091DA029091DB0200911C0118161906C8
:101240000CF0FDC101979093DB028093DA0260E01D
:10125000011101C061E088E00E94280211E880913C
:10126000D8029091D9021816190644F40197909368
:10127000D9028093D802126861E0011160E087E032
:101280000E9428028091D6029091D7021816190662
:1012900044F401979093D7028093D602146861E0DA
:1012A000011160E08EE00E9428028091D4029091AA
:1012B000D502181619060CF018C201979093D502A2
:1012C0008093D4021868002309F4BFC160E089E06C
:1012D0000E94280260E0BEC11216130634F4CF014A
:1012E0008C599F4FF092E402F1CE232BD9F3CF011A
:1012F00084569109F7CF833009F4FFC0843009F098
:101300008CCF8CE1EDE1F1E0D60101900D928A9550
:10131000E1F71D8EB80190E080E00E946D0C0E9404
:1013200054034C014091E002EC8E8AE08D8F1E8EBA
:101330009E012A5F3F4FC801F901B5010E949D0D32
:10134000805D8293CB01CE16DF0609F064C1C40133
:1013500051EF851658ED950614F481EF98ED803124
:1013600057E2950714F08FE097E25091F002523364
:1013700009F059C1003553EC150708F04EC15DE284
:101380005F83DC0197FF03C0B195A195B109CD0141
:1013900025503109B5010E94B10D805D8287CB01D6
:1013A00031972E173F07B1F781E340FF80E38D8728
:1013B00081E341FF80E38F8781E342FF80E3898BF4
:1013C00081E343FF80E38B8B81E344FF80E38D8BDC
:1013D00081E345FF80E38F8B81E346FF80E3898FC4
:1013E00081E347FF80E38B8F73C0B80190E080E01A
:1013F0004AE00E94D3036DE088EF92E00E94690109
:101400006AE088EF92E00E94690107CF80E1EAE399
:10141000F1E0D60101900D928A95E1F71A8A198AB6
:10142000B80190E080E00E946D0C0E9454034C01D2
:101430004091E002E88A8AE0898B9E012A5F3F4F53
:10144000C801F901B5010E949D0D805D8293CB0119
:10145000CE16DF0609F040C0C40151EF851658EDE5
:10146000950614F481EF98ED803157E2950714F05A
:101470008FE097E25091F0025233A9F5003553EC1A
:10148000150760F55DE25F83DC0197FF03C0B1954E
:10149000A195B109CD0125503109B5010E94B10DC9
:1014A000805D8287CB0131972E173F07B1F72AE085
:1014B000842F622F0E94910D905D9F870E94910D55
:1014C000905D9E87842F64E60E94910D805D8D87DC
:1014D000C6010E94C603A1CE9F01B3CF0035134CB5
:1014E00099F25BE2D0CF5C3379F600365AEE1507FD
:1014F00048F200361A4EA9F7C7CF87E1ECE4F1E0D5
:10150000D60101900D928A95E1F7188EB80190E00E
:1015100080E00E946D0C0E945403982E392F409158
:10152000E002F601C801B5010E949D0D805D878330
:10153000CB013197E215F305B1F7892D932F813F48
:10154000E8ED9E0714F481EF98ED9C0180319742FD
:1015500014F02FE037E28091F002823309F04FC09F
:10156000003583EC180708F044C08DE28A8737FF06
:1015700003C0319521953109C901F601B5010E94D9
:10158000B10D805D8587CB0131972E8D3F8D2E1754
:101590003F07A1F72AE0842F622F0E94910D905DF2
:1015A0009A8B0E94910D905D998B842F64E60E9426
:1015B000910D805D888BFE01349680E091918927A2
:1015C00028A139A1E217F307C9F72AE0622F0E9488
:1015D000910D905D9D8B0E94910D905D9C8B8EE492
:1015E000898386E48A8381E48B83EF8A288F198E2E
:1015F0006FCF0035134C09F4BACF8BE2B7CF8C33E1
:1016000009F0B5CF0036EAEE1E0708F4AECF00367B
:101610001A4E99F7ACCF9F018FCE0035134C09F4C9
:10162000B0CE5BE2ADCE5C3309F0ABCE00365AEE05
:10163000150708F4A4CE00361A4E99F7A2CE60E042
:1016400088E00E94280210E00ACE61E089E00E9452
:10165000280261E08AE00E94280280911C018F2507
:1016600080931C011093E0028091DD028F2580930E
:10167000DD0261E0811101C060E084E00E94280287
:101680008091F002823351F48091E2029091E30262
:10169000885C9F4A8131974208F4A8958091F002B6
:1016A0008C3351F48091E2029091E302885D964D73
:1016B0008131974208F4A8958091F702882301F1BF
:1016C0001092DC0265E070E080E090E00E94AC02E5
:1016D00080E090E0892B09F43ACC0E943301882302
:1016E00009F431CC0E9400002ECC60E089E00E9419
:1016F0002802112309F4EECD002309F4AACFEACD84
:101700008091DC028F5F8093DC02883CD8F281E814
:1017100092E00E94170464E670E080E090E00E948E
:10172000AC02F9CF111111CD1CCD111112CD19CD73
:10173000E8EFF2E01382128288EE93E0A0E0B0E0DE
:1017400084839583A683B78388E691E09183808321
:1017500085EC90E09587848784EC90E09787868776
:1017600080EC90E0918B808B81EC90E0938B828B6E
:1017700082EC90E0958B848B86EC90E0978B868B47
:10178000118E128E138E148E08955058BB27AA27DF
:101790000E94DD0B0C94E50C0E94D70C38F00E94DF
:1017A000DE0C20F039F49F3F19F426F40C94D40C8D
:1017B0000EF4E095E7FB0C94CE0CE92F0E94F60C9A
:1017C00058F3BA17620773078407950720F079F476
:1017D000A6F50C94180D0EF4E0950B2EBA2FA02D43
:1017E0000B01B90190010C01CA01A0011124FF27CE
:1017F000591B99F0593F50F4503E68F11A16F040C9
:10180000A22F232F342F4427585FF3CF46953795C7
:101810002795A795F0405395C9F77EF41F16BA0B8C
:10182000620B730B840BBAF09150A1F0FF0FBB1F3A
:10183000661F771F881FC2F70EC0BA0F621F731F83
:10184000841F48F4879577956795B795F7959E3FE0
:1018500008F0B0CF9395880F08F09927EE0F979571
:10186000879508950E94AA0C08F481E008950E94CB
:101870003E0C6894B1110C94190D08950E94FE0C51
:1018800088F09F5798F0B92F9927B751B0F0E1F041
:10189000660F771F881F991F1AF0BA95C9F714C0F1
:1018A000B13091F00E94180DB1E008950C94180D1C
:1018B000672F782F8827B85F39F0B93FCCF386952A
:1018C00077956795B395D9F73EF490958095709587
:1018D00061957F4F8F4F9F4F0895E89409C097FB04
:1018E0003EF490958095709561957F4F8F4F9F4FF7
:1018F0009923A9F0F92F96E9BB279395F69587953B
:1019000077956795B795F111F8CFFAF4BB0F11F4FD
:1019100060FF1BC06F5F7F4F8F4F9F4F16C08823A4
:1019200011F096E911C0772321F09EE8872F762FDA
:1019300005C0662371F096E8862F70E060E02AF01B
:101940009A95660F771F881FDAF7880F9695879507
:1019500097F90895990F0008550FAA0BE0E8FEEFDC
:1019600016161706E807F907C0F012161306E40763
:10197000F50798F0621B730B840B950B39F40A265C
:1019800061F0232B242B252B21F408950A2609F43A
:10199000A140A6958FEF811D811D089597F99F673E
:1019A00080E870E060E008959FEF80EC08950024E7
:1019B0000A941616170618060906089500240A94B4
:1019C00012161306140605060895092E0394000C3A
:1019D00011F4882352F0BB0F40F4BF2B11F460FFC9
:1019E00004C06F5F7F4F8F4F9F4F089557FD9058F2
:1019F000440F551F59F05F3F71F04795880F97FBD3
:101A0000991F61F09F3F79F087950895121613068C
:101A10001406551FF2CF4695F1DF08C016161706BB
:101A20001806991FF1CF86957105610508940895F0
:101A3000E894BB2766277727CB0197F908950E9482
:101A4000AA0C08F48FEF08950E94370D0C94E50C52
:101A50000E94D70C38F00E94DE0C20F0952311F084
:101A60000C94CE0C0C94D40C11240C94190D0E94DF
:101A7000F60C70F3959FC1F3950F50E0551F629FD0
:101A8000F001729FBB27F00DB11D639FAA27F00DD7
:101A9000B11DAA1F649F6627B00DA11D661F829FFE
:101AA0002227B00DA11D621F739FB00DA11D621FE3
:101AB000839FA00D611D221F749F3327A00D611D00
:101AC000231F849F600D211D822F762F6A2F1124E2
:101AD0009F5750409AF0F1F088234AF0EE0FFF1F15
:101AE000BB1F661F771F881F91505040A9F79E3F6C
:101AF000510580F00C94CE0C0C94190D5F3FE4F36B
:101B0000983ED4F3869577956795B795F795E795C1
:101B10009F5FC1F7FE2B880F911D9695879597F9CA
:101B20000895991B79E004C0991F961708F0961B39
:101B3000881F7A95C9F780950895AA1BBB1B51E1B0
:101B400007C0AA1FBB1FA617B70710F0A61BB70B2D
:101B5000881F991F5A95A9F780959095BC01CD01D2
:101B6000089597FB072E16F4009407D077FD09D04F
:101B70000E949D0D07FC05D03EF4909581959F4FE6
:101B80000895709561957F4F0895A1E21A2EAA1BC2
:101B9000BB1BFD010DC0AA1FBB1FEE1FFF1FA2171D
:101BA000B307E407F50720F0A21BB30BE40BF50B1A
:101BB000661F771F881F991F1A9469F760957095A3
:101BC000809590959B01AC01BD01CF010895EE0F6A
:0E1BD000FF1F0590F491E02D0994F894FFCFCB
:101BDE00D007D007DE02DE0250C350C320CB80BB3D
:101BEE0038C768BF18C488C2B4C3ECC201353030E0
:101BFE0030303B30303030303B303B303B303B30A0
:101C0E003B303B303B303B30000035303030303BEA
:101C1E0030303030303B3030300000004E464135F1
:101C2E0030303030663030303030503030304D3033
:101C3E0030430000000000006901C900F600B60143
:101C4E002701050119010D0A005B324A005B4800AD
:101C5E004E46412D52506920322E302065787465E3
:101C6E006E64656E64206D666D20284041726475E9
:101C7E00696E6F290030322732303231204A2E4DB4
:101C8E00C3BC6C6C6572207777772E70632D707283
:101C9E006F6A656B74652E6465004175746F2D44B3
:101CAE006574656374002A0020203D3E20646574CF
:101CBE00656374203530487A202020200020203D96
:101CCE003E20646574656374203630487A20202087
:101CDE002000557365722073657474696E67203ABF
:101CEE00203530487A206D61696E73206672657199
:101CFE0075656E63790055736572207365747469CA
:101D0E006E67203A203630487A206D61696E7320F6
:101D1E006672657175656E6379004F757470757452
:101D2E002070726F746F636F6C3A2000537461721F
:101D3E0074206D61696E73206672657175656E6370
:101D4E0079206D6561737572656D656E742E2E2EBC
:101D5E00006661696C74202F204572726F72206D5F
:101D6E006561737572656D656E742028547269674E
:101D7E00676572205265736574436F756E74657214
:101D8E0029004552524F52206D6561737572656D13
:041D9E00656E7400FA
:00000001FF
