:100000000C945D000C944C030C9425030C94850017
:100010000C9485000C9485000C9485000C9485004C
:100020000C9485000C9485000C9485000C9485003C
:100030000C9485000C9473030C9485000C9485003B
:100040000C94DB020C9485000C94A9020C9483029E
:100050000C9485000C9485000C9485000C9485000C
:100060000C9485000C9485000000000024002700FB
:100070002A0000000000250028002B0004040404CE
:100080000404040402020202020203030303030342
:10009000010204081020408001020408102001021F
:1000A00004081020000000080002010000030407FB
:1000B00000000000000000008A0511241FBECFEFE1
:1000C000D8E0DEBFCDBF11E0A0E0B1E0E2ECFBE0A4
:1000D00002C005900D92A83BB107D9F722E0A8EB2A
:1000E000B1E001C01D92AC36B207E1F710E0CDE5FA
:1000F000D0E004C02197FE010E94D905CC35D1077C
:10010000C9F70E94A3030C94DF050C940000E6EAF3
:10011000F0E02491E2E9F0E09491EEE7F0E0E49180
:10012000EE23C9F0222339F0233001F1A8F4213065
:1001300019F1223029F1F0E0EE0FFF1FEE58FF4FCA
:10014000A591B4912FB7F894EC91811126C09095A8
:100150009E239C932FBF08952730A9F02830C9F023
:10016000243049F7209180002F7D03C0209180002A
:100170002F7720938000DFCF24B52F7724BDDBCFEE
:1001800024B52F7DFBCF2091B0002F772093B000B6
:10019000D2CF2091B0002F7DF9CF9E2BDACFAF9236
:1001A000BF92CF92DF92EF92FF920F931F93CF9364
:1001B000DF936C017B018B01040F151FEB015E01C6
:1001C000AE18BF08C017D10759F06991D601ED915B
:1001D000FC910190F081E02DC6010995892B79F7FA
:1001E000C501DF91CF911F910F91FF90EF90DF90AC
:1001F000CF90BF90AF900895FC01538D448D252F73
:1002000030E0842F90E0821B930B541710F0CF96B0
:10021000089501970895FC01918D828D981761F0E2
:10022000A28DAE0FBF2FB11D5D968C91928D9F5FF9
:100230009F73928F90E008958FEF9FEF0895FC01D8
:10024000918D828D981731F0828DE80FF11D858D8B
:1002500090E008958FEF9FEF0895FC01918D228D1E
:10026000892F90E0805C9F4F821B91098F739927A3
:1002700008958FEC91E00E942D0121E0892B09F473
:1002800020E0822F089580E090E0892B29F00E94E1
:10029000390181110C9400000895FC01A48DA80F70
:1002A000B92FB11DA35ABF4F2C91848D90E00196B8
:1002B0008F739927848FA689B7892C93A089B189D8
:1002C0008C91837080648C93938D848D981306C079
:1002D0000288F389E02D80818F7D80830895EF92DD
:1002E000FF920F931F93CF93DF93EC0181E0888FF0
:1002F0009B8D8C8D98131AC0E889F989808185FFC0
:1003000015C09FB7F894EE89FF896083E889F98961
:1003100080818370806480839FBF81E090E0DF9163
:10032000CF911F910F91FF90EF900895F62E0B8DB6
:1003300010E00F5F1F4F0F731127E02E8C8D8E1171
:100340000CC00FB607FCFACFE889F989808185FFD8
:10035000F5CFCE010E944D01F1CFEB8DEC0FFD2FBB
:10036000F11DE35AFF4FF0829FB7F8940B8FEA8993
:10037000FB8980818062CFCFCF93DF93EC01888DA2
:100380008823B9F0AA89BB89E889F9898C9185FD10
:1003900003C0808186FD0DC00FB607FCF7CF8C919E
:1003A00085FFF2CF808185FFEDCFCE010E944D0108
:1003B000E9CFDF91CF9108953FB7F8948091BF01C5
:1003C0009091C001A091C101B091C20126B5A89B36
:1003D00005C02F3F19F00196A11DB11D3FBFBA2FD7
:1003E000A92F982F8827BC01CD01620F711D811D97
:1003F000911D42E0660F771F881F991F4A95D1F71C
:1004000008958F929F92AF92BF92CF92DF92EF9218
:10041000FF924B015C010E94DC016B017C010E9498
:10042000DC016C197D098E099F09683E73408105C6
:100430009105A8F321E0821A9108A108B10888EE7D
:10044000C80E83E0D81EE11CF11C81149104A104A4
:10045000B10429F7FF90EF90DF90CF90BF90AF905D
:100460009F908F9008950895209184003091850089
:1004700080910001909101018217930740F58091CE
:10048000840090918500805A964F9093010180934B
:1004900000018091B9018F5F8093B9018231B8F07A
:1004A00080918400909185009093CD018093CC0140
:1004B00010928500109284001092B90181E080931F
:1004C000CE0180E699E090930101809300010895A8
:1004D000FC0101900020E9F73197AF01481B590B4F
:1004E000BC018FEC91E00C94CF00CF93DF930E947E
:1004F0006802EC0188E191E00E9468028C0F9D1F68
:10050000DF91CF9108951F920F920FB60F92112491
:100510002F933F934F935F936F937F938F939F930B
:10052000AF93BF93EF93FF938FEC91E00E944D0147
:10053000FF91EF91BF91AF919F918F917F916F91BB
:100540005F914F913F912F910F900FBE0F901F9091
:1005500018951F920F920FB60F9211242F938F931D
:100560009F93EF93FF93E091DF01F091E001808191
:10057000E091E501F091E60182FD1BC09081809140
:10058000E8018F5F8F732091E901821741F0E091BC
:10059000E801F0E0E153FE4F958F8093E801FF9171
:1005A000EF919F918F912F910F900FBE0F901F9001
:1005B00018958081F4CF1F920F920FB60F921124DD
:1005C0002F933F938F939F93AF93BF938091BB01E2
:1005D0009091BC01A091BD01B091BE013091BA01D2
:1005E00023E0230F2D3758F50196A11DB11D20934F
:1005F000BA018093BB019093BC01A093BD01B0935D
:10060000BE018091BF019091C001A091C101B09144
:10061000C2010196A11DB11D8093BF019093C0013D
:10062000A093C101B093C201BF91AF919F918F91EF
:100630003F912F910F900FBE0F901F90189526E8B5
:10064000230F0296A11DB11DD2CF1F920F920FB69C
:100650000F9211242F933F934F935F936F937F9348
:100660008F939F93AF93BF93EF93FF93E091040118
:10067000F09105010995FF91EF91BF91AF919F9185
:100680008F917F916F915F914F913F912F910F903B
:100690000FBE0F901F9018951F920F920FB60F92DA
:1006A00011242F933F934F935F936F937F938F9377
:1006B0009F93AF93BF93EF93FF93E0910201F0916B
:1006C00003010995FF91EF91BF91AF919F918F9198
:1006D0007F916F915F914F913F912F910F900FBE3E
:1006E0000F901F9018951F920F920FB60F92112422
:1006F0002F933F934F935F936F937F938F939F932A
:10070000AF93BF93EF93FF938091B8018F5F809376
:10071000B8018A3038F081EB91E00E9475028AE0DE
:100720008093B801FF91EF91BF91AF919F918F910D
:100730007F916F915F914F913F912F910F900FBEDD
:100740000F901F901895CF93DF93CDB7DEB7A19789
:100750000FB6F894DEBF0FBECDBF789484B582602B
:1007600084BD84B5816084BD85B5826085BD85B555
:10077000816085BD80916E00816080936E001092D3
:10078000810080918100826080938100809181004E
:1007900081608093810080918000816080938000DF
:1007A0008091B10084608093B1008091B00081603D
:1007B0008093B00080917A00846080937A00809169
:1007C0007A00826080937A0080917A0081608093C1
:1007D0007A0080917A00806880937A001092C1003C
:1007E000F894E091DF01F091E00182E08083E091F4
:1007F000DB01F091DC011082E091DD01F091DE017E
:1008000087E680831092E701E091E301F091E40133
:1008100086E08083E091E101F091E20180818061D6
:100820008083E091E101F091E20180818860808322
:10083000E091E101F091E201808180688083E091A4
:10084000E101F091E20180818F7D808380E490E07E
:100850009093C5008093C400E2E9F0E02491EEE7B4
:10086000F0E08491882399F090E0880F991FFC01B3
:10087000E859FF4FA591B491FC01EE58FF4F8591C7
:1008800094918FB7F894EC91E22BEC938FBF84E3B3
:1008900092E0909305018093040180916900837F29
:1008A000886080936900E99A10928000109281001C
:1008B0001092850010928400809181008360809363
:1008C000810080916F00816080936F00789488E14F
:1008D00098E20FB6F894A895809360000FBE9093AD
:1008E00060008BE191E00E94750280E491E00E943B
:1008F00075021092CE018091C801823309F451C073
:100900008C3309F44EC085E691E00E94680268EEDF
:1009100073E080E090E00E9401028091CE0181119D
:1009200001C0FFCF1092CE012091CC013091CD01BA
:1009300050E040E060E278E583EA97EA0E94B7057C
:100940003093CB012093CA01C901895C9F4A8F3043
:10095000974288F43093C4012093C30182E38093CB
:10096000C80184E791E00E94750268EE73E080E0C0
:1009700090E00E9401028091CA019091CB01895DB3
:10098000964D8F30974268F48CE38093C80184E8D9
:1009900091E00E94750268EE73E080E090E00E94B2
:1009A000010284E991E00E94750267E08FEC91E01A
:1009B0000E946F0180E2882E88E5982E83EAA82E97
:1009C00087EAB82E9AE0492E512C612C712CEE2426
:1009D000E39420E0C22E20E0D22EFF24F3948091F5
:1009E000CE01882309F47CC01092CE012091CC0165
:1009F0003091CD0150E040E0C501B4010E94B7053F
:100A0000C9013093CB012093CA011092C901B901E9
:100A1000695C7F4A6F30774230F46091C80162337D
:100A200011F4F092C901B901695D764D6F307742DA
:100A300030F46091C8016C3311F4F092C9016091F7
:100A4000C901662359F16091C3017091C401890104
:100A5000061B170B980117FF04C022273327201B02
:100A6000310B2D33310534F0101611060CF04AC04D
:100A7000CB01CC969093C4018093C3019093C7019E
:100A80008093C6018091C5018E258093C50188237E
:100A900009F43EC081E00E948700A8952091C6011C
:100AA0003091C70150E040E019A28E010F5D1F4F49
:100AB000CA01B901A30192010E94B705605DF80166
:100AC00062938F01211531054105510589F7309752
:100AD00019F0CF010E94680288E191E00E9468024B
:100AE00062E370E080E090E00E940102C114D10452
:100AF00009F475CF0E943901882309F470CF0E9450
:100B000000006DCF012B09F4B5CFCB01CC97B2CF4C
:100B100080E0C1CFEFECF1E01382128288EE93E027
:100B2000A0E0B0E084839583A683B7838AE091E058
:100B30009183808385EC90E09587848784EC90E0B6
:100B40009787868780EC90E0918B808B81EC90E09A
:100B5000938B828B82EC90E0958B848B86EC90E07B
:100B6000978B868B118E128E138E148E0895A1E2B0
:100B70001A2EAA1BBB1BFD010DC0AA1FBB1FEE1F17
:100B8000FF1FA217B307E407F50720F0A21BB30B62
:100B9000E40BF50B661F771F881F991F1A9469F7DE
:100BA00060957095809590959B01AC01BD01CF013A
:100BB0000895EE0FFF1F0590F491E02D0994F8942D
:020BC000FFCF65
:100BC200600933023302000000006F01CF00FC0015
:100BD200BC012D010B011F010D0A004E46412D5291
:100BE200506920312E3020426173697370726F67D1
:100BF20072616D6D20284041726475696E6F2900C3
:100C020030352732303230204A2E4DC3BC6C6C65F1
:100C120072207777772E70632D70726F6A656B74AE
:100C2200652E6465004175746F2D44657465637447
:100C32002E2E2E0020203530487A2D4E65747A20D3
:100C42002020200020203630487A2D4E65747A20EC
:100C5200202020005374617274204E65747A66728B
:100C6200657175656E7A6D657373756E672E2E2E5E
:080C72000058585858580000C2
:00000001FF
